:100000000C943B000C9458000C9458000C9458002D
:100010000C9458000C9458000C9458000C94580000
:100020000C9458000C9458000C9429010C940F0166
:100030000C9458000C94E0010C9458000C94580057
:100040000C9458000C9458000C9458000C945800D0
:100050000C9458000C9458000C9458000C945800C0
:100060000C9458000C9458009900A300AC00B50003
:10007000BE00C700D00011241FBECFEFD8E0DEBF06
:10008000CDBF11E0A0E0B1E0EAE6FAE002C00590E1
:100090000D92A038B107D9F721E0A0E8B1E001C086
:1000A0001D92A239B207E1F70E94E3000C943305D8
:1000B0000C940000CF93C82F8A3019F48DE00E9471
:1000C0005A00E0ECF0E0808185FFFDCFC093C600D0
:1000D00080E090E0CF910895E0ECF0E0808188230B
:1000E000ECF78091C60090E008951092C50087E675
:1000F0008093C400E0ECF0E080818D7F808386E017
:100100008093C20088E18093C100ECE8F1E08FE0C9
:1001100091E09383828381E091E0918380830895CD
:100120008730910508F045C0FC01EC5CFF4F0C9452
:100130000B0285B1837E85B985B185B98DE191E0EA
:100140000E943B02089585B1877E85B92A9A84E290
:1001500091E00E943B02089585B18B7E85B92B9A70
:100160008BE291E00E943B0208952C9885B18C604F
:1001700085B982E391E00E943B02089585B1837FB7
:1001800085B92C9A89E391E00E943B0208952B984F
:1001900085B1846185B980E491E00E943B020895B5
:1001A0002A9885B1886185B987E491E00E943B0275
:1001B000089585B185B985B18C6185B98EE491E0EA
:1001C0000E943B0208950E9475008EE184B985B1BA
:1001D000826285B91092850010928400EFE6F0E00B
:1001E00080818260808380E590E090938900809395
:1001F0008800E0E8F0E0808180648083E1E8F0E05E
:100200008081816080837894569A84B5806484BDAF
:1002100084B5826084BD85B5836085BDFFCF1F92A4
:100220000F920FB60F9211248F93EF93FF93EFE687
:10023000F0E0808180628083E1E8F0E0808180648A
:100240008083FF91EF918F910F900FBE0F901F90C1
:1002500018951F920F920FB60F9211242F933F9370
:100260004F935F936F937F938F939F93AF93BF93BE
:10027000EF93FF93E1E8F0E0908180E489278083A9
:10028000809100018823F1F0809186009091870091
:1002900080938001909381011092870110928601D2
:1002A0009F938F9385E591E09F938F930E94250202
:1002B000EFE6F0E08081816080830F900F900F90D7
:1002C0000F9067C0EFE6F0E0108282E080838091BB
:1002D00086009091870020E030E030918601820F07
:1002E000931F909389018093880120918001309120
:1002F0008101821B930B90938301809382019C0167
:10030000992314F4215F3F4F35952795359527950F
:1003100035952795359527953F932F9384E691E062
:100320009F938F930E942502809182019091830177
:1003300099230CF40F9695958795959587959595A6
:10034000879595958795845091406BE970E00E9460
:10035000F701CB010E94900087B51F928F9380E632
:1003600091E09F938F930E94250210928301109237
:1003700082011092810110928001109289011092E5
:1003800088018DB79EB708960FB6F8949EBF0FBE32
:100390008DBF9091000181E0892780930001FF913A
:1003A000EF91BF91AF919F918F917F916F915F91ED
:1003B0004F913F912F910F900FBE0F901F90189566
:1003C0001F920F920FB60F9211248F939F938091DB
:1003D0008601909187010196909387018093860111
:1003E0009F918F910F900FBE0F901F90189597FBC4
:1003F000072E16F4009407D077FD09D00E94110251
:1004000007FC05D03EF4909581959F4F0895709517
:1004100061957F4F0895EE0FFF1F0590F491E02D39
:100420000994AA1BBB1B51E107C0AA1FBB1FA6173B
:10043000B70710F0A61BB70B881F991F5A95A9F78D
:1004400080959095BC01CD010895A0E0B0E0EBE26D
:10045000F2E00C940C05AE014B5F5F4FFA01619125
:100460007191AF0180918E0190918F010E946B027A
:10047000E2E00C9428050F931F93CF93DF93E09154
:100480008E01F0918F01238121FF1BC08C01D0E0F0
:10049000C0E0F80181918F0160918E0170918F0110
:1004A000DB011896ED91FC911997882331F009959D
:1004B000892B79F3DFEFCFEFECCF8AE00995892B19
:1004C00019F08FEF9FEF02C08D2F9C2FDF91CF91FE
:1004D0001F910F910895ABE0B0E0E1E7F2E00C94DA
:1004E000FC046C017B018A01FC0117821682838166
:1004F00081FFCCC1CE0101963C01F6019381F70149
:1005000093FD859193FF81917F01882309F4BAC1FE
:10051000853239F493FD859193FF81917F01853276
:1005200029F4B60190E00E946204E7CF912C212CBF
:10053000312CFFE1F315D8F08B3279F038F48032AA
:1005400079F08332A1F4232D20611DC08D3261F03A
:10055000803369F4232D216016C0832D8260382EEC
:10056000E32DE4603E2E2AC0F32DF8601DC037FC59
:100570002DC020ED280F2A3040F08E32B9F436FC21
:1005800081C1232D2064322E19C036FE06C08AE0B8
:10059000989E200D1124922E11C0EAE02E9E200D6F
:1005A0001124222EF32DF0623F2E08C08C3621F448
:1005B000832D8068382E02C0883641F4F70193FD00
:1005C000859193FF81917F018111B3CF982F9F7DFA
:1005D0009554933028F40C5F1F4F9FE399830DC00F
:1005E000833631F0833771F0833509F059C021C06B
:1005F000F801808189830E5F1F4F88248394912C9A
:10060000530113C02801F2E04F0E511CF801A080E5
:10061000B18036FE03C0692D70E002C06FEF7FEF3E
:10062000C5010E9457044C018201F32DFF773F2E34
:1006300016C0280122E0420E511CF801A080B180B2
:1006400036FE03C0692D70E002C06FEF7FEFC50179
:100650000E944C044C01F32DF0683F2E820133FCC4
:100660001BC0822D90E088169906B0F4B60180E296
:1006700090E00E9462042A94F4CFF50137FC859142
:1006800037FE81915F01B60190E00E946204211063
:100690002A9421E0821A91088114910471F7E8C02C
:1006A000843611F0893641F5F80137FE07C06081C4
:1006B0007181828193810C5F1F4F08C060817181BD
:1006C000072E000C880B990B0E5F1F4FF32DFF7642
:1006D0003F2E97FF09C090958095709561957F4F4B
:1006E0008F4F9F4FF0683F2E2AE030E0A3010E9419
:1006F0009E04882E861845C0853731F4232D2F7E21
:10070000B22E2AE030E025C0932D997FB92E8F3686
:10071000C1F018F4883579F0B5C0803719F0883702
:1007200021F0B0C0E92FE061BE2EB4FE0DC0FB2D5C
:10073000F460BF2E09C034FE0AC0292F2660B22EF5
:1007400006C028E030E005C020E130E002C020E132
:1007500032E0F801B7FE07C0608171818281938128
:100760000C5F1F4F06C06081718180E090E00E5FDA
:100770001F4FA3010E949E04882E8618FB2DFF7731
:100780003F2E36FE0DC0232D2E7FA22E891458F445
:1007900034FE0BC032FC09C0832D8E7EA82E05C00E
:1007A000B82CA32C03C0B82C01C0B92CA4FE0FC0D8
:1007B000FE01E80DF11D8081803321F49A2D997E90
:1007C000A92E09C0A2FE06C0B394B39404C08A2D1A
:1007D000867809F0B394A3FC11C0A0FE06C0B21441
:1007E00088F4280C922C9B180EC0B21460F4B60149
:1007F00080E290E00E946204B394F7CFB21418F440
:100800002B1802C0982C212CA4FE10C0B60180E346
:1008100090E00E946204A2FE17C0A1FC03C088E71A
:1008200090E002C088E590E0B6010CC08A2D867881
:1008300059F0A1FE02C08BE201C080E2A7FC8DE26C
:10084000B60190E00E946204891438F4B60180E396
:1008500090E00E9462049A94F7CF8A94F301E80D25
:10086000F11D8081B60190E00E9462048110F5CFF5
:10087000222009F442CEB60180E290E00E94620498
:100880002A94F6CFF6018681978102C08FEF9FEF01
:100890002B96E2E10C941805FC0105906150704024
:1008A0000110D8F7809590958E0F9F1F0895FC0139
:1008B0006150704001900110D8F7809590958E0F8F
:1008C0009F1F08950F931F93CF93DF93FB01238105
:1008D00021FD03C08FEF9FEF2CC022FF16C0468181
:1008E0005781248135814217530744F4A081B18197
:1008F0009D012F5F3F4F318320838C932681378169
:100900002F5F3F4F3783268314C08B01EC01FB011F
:100910000084F185E02D0995892BE1F6D801169622
:100920008D919C911797019617969C938E9316978D
:10093000CE01DF91CF911F910F910895FA01AA275F
:10094000283051F1203181F1E8946F936E7F6E5F12
:100950007F4F8F4F9F4FAF4FB1E03ED0B4E03CD0C0
:10096000670F781F891F9A1FA11D680F791F8A1FA3
:10097000911DA11D6A0F711D811D911DA11D20D00A
:1009800009F468943F912AE0269F11243019305DC4
:100990003193DEF6CF010895462F4770405D4193B5
:1009A000B3E00FD0C9F7F6CF462F4F70405D4A3302
:1009B00018F0495D31FD4052419302D0A9F7EACFCA
:1009C000B4E0A6959795879577956795BA95C9F7F9
:1009D00000976105710508959B01AC010A2E0694EC
:1009E0005795479537952795BA95C9F7620F731FA5
:1009F000841F951FA01D08952F923F924F925F92E2
:100A00006F927F928F929F92AF92BF92CF92DF921E
:100A1000EF92FF920F931F93CF93DF93CDB7DEB783
:100A2000CA1BDB0B0FB6F894DEBF0FBECDBF099417
:100A30002A88398848885F846E847D848C849B846E
:100A4000AA84B984C884DF80EE80FD800C811B817C
:100A5000AA81B981CE0FD11D0FB6F894DEBF0FBEAB
:0A0A6000CDBFED010895F894FFCF1B
:100A6A0001000000010000000000006C000000000E
:100A7A00000002000000005A0000000000636173D9
:100A8A0065203000636173652031006361736520FE
:100A9A00320063617365203300636173652034003B
:100AAA006361736520350063617365203600636195
:100ABA00736520370053746172742074696D652000
:100ACA0025640A00746865202074696D6520696E62
:100ADA0074657276616C206973202564200A0000AF
:00000001FF
