S01700004763634170706C69636174696F6E322E737265635A
S11300000C9434000C943E000C943E000C943E007E
S11300100C943E000C943E000C943E000C943E0064
S11300200C943E000C943E000C943E000C943E0054
S11300300C943E000C943E000C944F000C943E0033
S11300400C943E000C943E000C943E000C943E0034
S11300500C943E000C943E000C943E000C943E0024
S11300600C943E000C943E0011241FBECFEFD8E048
S1130070DEBFCDBF0E9440000C9461000C940000D0
S1130080569A82E084BD86E487BDEEE6F0E0808186
S113009082608083789485B5846085BDFFCF1F928C
S11300A00F920FB60F9211248F939F939BB180E40C
S11300B089278BB99F918F910F900FBE0F901F903E
S10900C01895F894FFCF2F
S9030000FC
