S01700004763634170706C69636174696F6E342E7372656358
S11300000C9434000C943E000C943E000C943E007E
S11300100C943E000C943E000C943E000C943E0064
S11300200C943E000C943E000C943E000C943E0054
S11300300C943E000C943E000C943E000C943E0044
S11300400C944C000C943E000C943E000C943E0026
S11300500C943E000C943E000C943E000C943E0024
S11300600C943E000C943E0011241FBECFEFD8E048
S1130070DEBFCDBF0E9440000C945E000C940000D3
S1130080569A5E9AEEE6F0E08081816080837894EF
S113009085B5856085BDFFCF1F920F920FB60F9275
S11300A011248F939F939BB180E489278BB99F91EF
S11300B08F910F900FBE0F901F901895F894FFCF5B
S9030000FC
