:100000000C9434000C943E000C943E000C943E0082
:100010000C943E000C943E000C943E000C943E0068
:100020000C943E000C943E000C9453000C943E0043
:100030000C943E000C943E000C943E000C943E0048
:100040000C943E000C943E000C943E000C943E0038
:100050000C943E000C943E000C943E000C943E0028
:100060000C943E000C943E0011241FBECFEFD8E04C
:10007000DEBFCDBF0E9440000C946F000C940000C6
:1000800084B1806384B985B1816385B9EFE6F0E01E
:10009000808180628083B59A7894E1E8F0E0808185
:1000A00085608083FFCF1F920F920FB60F921124AD
:1000B0008F939F93EF93FF9395B180E2892785B942
:1000C000E1E8F0E0908180E489278083FF91EF915F
:1000D0009F918F910F900FBE0F901F901895F894DD
:0200E000FFCF50
:00000001FF
