S00B0000335F332E7372656354
S11300000C9442000C945F000C945F000C945F000D
S11300100C945F000C945F000C945F000C945F00E0
S11300200C945F000C945F000C94BA010C94910141
S11300300C945F000C949E020C945F000C945F007F
S11300400C945F000C945F000C945F000C945F00B0
S11300500C945F000C945F000C945F000C945F00A0
S11300600C945F000C945F00A000AA00B300BC00D5
S1130070C500CE00D7000A010D01100113011601BD
S113008019011C0111241FBECFEFD8E0DEBFCDBF84
S113009011E0A0E0B1E0E6E3FCE002C005900D92BF
S11300A0AE38B107D9F721E0AEE8B1E001C01D9246
S11300B0A63AB207E1F70E944F010C9419060C947A
S11300C00000CF93C82F8A3019F48DE00E9461009C
S11300D0E0ECF0E0808185FFFDCFC093C60080E0B6
S11300E090E0CF910895E0ECF0E080818823ECF774
S11300F08091C60090E008951092C50087E6809331
S1130100C400E0ECF0E080818D7F808386E0809302
S1130110C20088E18093C100E0EAF1E08FE091E061
S11301209383828381E091E0918380830895873073
S1130130910508F045C0FC01EC5CFF4F0C94D4021F
S113014085B1837E85B985B185B98DE191E00E9441
S11301502103089585B1877E85B92A9A84E291E0C6
S11301600E942103089585B18B7E85B92B9A8BE279
S113017091E00E94210308952C9885B18C6085B983
S113018082E391E00E942103089585B1837F85B9BC
S11301902C9A89E391E00E94210308952B9885B15C
S11301A0846185B980E491E00E94210308952A982E
S11301B085B1886185B987E491E00E94210308959F
S11301C085B185B985B18C6185B98EE491E00E94D1
S11301D021030895EAE7F0E08081876080838081CD
S11301E080628083808180688083ACE7B0E08C91FA
S11301F080648C93ABE7B0E08C918C9380818064B5
S11302008083089587309105D0F4FC01E55CFF4FAD
S11302100C94D40288E787BD08958AE687BD0895C3
S11302208FE587BD08958AE587BD089580E587BD7C
S1130230089587E487BD08958FE387BD08958CE30F
S113024087BD08952FE33DE043E021503040404016
S1130250E1F700C00000AB01BC01485C5109610931
S11302607109DB01CA011AF40796A11DB11D689436
S113027012F8B595A795979587951694D1F781951A
S113028087BD87B51F928F9385E591E09F938F93E8
S11302900E940B030F900F900F900F9008950E94EF
S11302A07C008EE384B984B1826284B985B18262B0
S11302B085B91092850010928400EFE6F0E0808109
S11302C08260808380E590E0909389008093880029
S11302D0E0E8F0E0808180648083E1E8F0E0808100
S11302E0816080837894569A84B5806484BD84B593
S11302F0826084BD85B5836085BD0E94EA0008E7FD
S113030010E0CDE6D1E0F801808191819F938F9335
S1130310DF93CF930E940B030F900F900F900F90D9
S1130320F2CF1F920F920FB60F9211248F939F93C7
S1130330EF93FF9381E090E090939901809398016B
S1130340219AEFE6F0E0808180628083E1E8F0E0CA
S113035080818064808380E89CE09093890080930E
S11303608800FF91EF919F918F910F900FBE0F9096
S11303701F9018951F920F920FB60F9211240F938E
S11303801F932F933F934F935F936F937F938F9319
S11303909F93AF93BF93EF93FF93E1E8F0E09081D5
S11303A080E489278083809100018823F1F0809183
S11303B086009091870080938E0190938F01109214
S11303C09701109296019F938F9382E691E09F93F9
S11303D08F930E940B03EFE6F0E0808181608083BD
S11303E00F900F900F900F9090C0EFE6F0E0108206
S11303F082E08083409186005091870060E070E045
S113040040939A0150939B0160939C0170939D01CA
S113041080918E0190918F01092E000CAA0BBB0BC9
S1130420481B590B6A0B7B0B40939001509391012D
S11304306093920170939301DB01CA0177231CF44A
S11304400F96A11DB11D689413F8B595A7959795BE
S113045087951694D1F7BF93AF939F938F9381E7BA
S113046091E09F938F930E940B0360919001709190
S1130470910180919201909193010F900F900F90B0
S11304800F900F900F901D9B22C08B019C0199230C
S113049024F4015F1F4F2F4F3F4FD901C8016894C7
S11304A013F8B595A795979587951694D1F7BC0140
S11304B0CD0164507140810991092BE930E040E09D
S11304C050E00E94B502C9010E94020102C00E94CC
S11304D022014091780050917900485251099A01C3
S11304E0A9E6BAE00E94DA02481B590B56954795D3
S11304F0840F951F0024880F991F001C880F991FD3
S1130500001C892F902D0E9497009091000181E09A
S1130510892780930001FF91EF91BF91AF919F9143
S11305208F917F916F915F914F913F912F911F9187
S11305300F910F900FBE0F901F9018951F920F925E
S11305400FB60F9211248F939F93809196019091EF
S11305509701019690939701809396019F918F91B3
S11305600F900FBE0F901F901895052E97FB1EF449
S113057000940E94CC0257FD07D00E94E90207FCB8
S113058003D04EF40C94CC025095409530952195AF
S11305903F4F4F4F5F4F08959095809570956195AB
S11305A07F4F8F4F9F4F0895EE0FFF1F0590F491DB
S11305B0E02D0994A29FB001B39FC001A39F700DC9
S11305C0811D1124911DB29F700D811D1124911D57
S11305D00895A1E21A2EAA1BBB1BFD010DC0AA1F80
S11305E0BB1FEE1FFF1FA217B307E407F50720F098
S11305F0A21BB30BE40BF50B661F771F881F991F13
S11306001A9469F760957095809590959B01AC015B
S1130610BD01CF010895A0E0B0E0E1E1F3E00C9466
S1130620F205AE014B5F5F4FFA0161917191AF0129
S11306308091A2019091A3010E945103E2E00C94E5
S11306400E060F931F93CF93DF93E091A201F091D5
S1130650A301238121FF1BC08C01D0E0C0E0F8017D
S113066081918F016091A2017091A301DB01189621
S1130670ED91FC911997882331F00995892B79F331
S1130680DFEFCFEFECCF8AE00995892B19F08FEFDC
S11306909FEF02C08D2F9C2FDF91CF911F910F915F
S11306A00895ABE0B0E0E7E5F3E00C94E2056C01FB
S11306B07B018A01FC0117821682838181FFCCC1F0
S11306C0CE0101963C01F6019381F70193FD8591DA
S11306D093FF81917F01882309F4BAC1853239F4EB
S11306E093FD859193FF81917F01853229F4B601B1
S11306F090E00E944805E7CF912C212C312CFFE19A
S1130700F315D8F08B3279F038F4803279F08332F3
S1130710A1F4232D20611DC08D3261F0803369F472
S1130720232D216016C0832D8260382EE32DE460D2
S11307303E2E2AC0F32DF8601DC037FC2DC020EDDD
S1130740280F2A3040F08E32B9F436FC81C1232DB3
S11307502064322E19C036FE06C08AE0989E200D11
S11307601124922E11C0EAE02E9E200D1124222E77
S1130770F32DF0623F2E08C08C3621F4832D80685F
S1130780382E02C0883641F4F70193FD859193FF1A
S113079081917F018111B3CF982F9F7D9554933020
S11307A028F40C5F1F4F9FE399830DC0833631F00B
S11307B0833771F0833509F059C021C0F801808175
S11307C089830E5F1F4F88248394912C530113C097
S11307D02801F2E04F0E511CF801A080B18036FED2
S11307E003C0692D70E002C06FEF7FEFC5010E9466
S11307F03D054C018201F32DFF773F2E16C02801E1
S113080022E0420E511CF801A080B18036FE03C0E4
S1130810692D70E002C06FEF7FEFC5010E943205C1
S11308204C01F32DF0683F2E820133FC1BC0822D56
S113083090E088169906B0F4B60180E290E00E9438
S113084048052A94F4CFF50137FC859137FE819150
S11308505F01B60190E00E94480521102A9421E02E
S1130860821A91088114910471F7E8C0843611F05A
S1130870893641F5F80137FE07C0608171818281B4
S113088093810C5F1F4F08C060817181072E000C9B
S1130890880B990B0E5F1F4FF32DFF763F2E97FFAA
S11308A009C090958095709561957F4F8F4F9F4FAC
S11308B0F0683F2E2AE030E0A3010E948405882ED0
S11308C0861845C0853731F4232D2F7EB22E2AE0B9
S11308D030E025C0932D997FB92E8F36C1F018F4DE
S11308E0883579F0B5C0803719F0883721F0B0C069
S11308F0E92FE061BE2EB4FE0DC0FB2DF460BF2EC7
S113090009C034FE0AC0292F2660B22E06C028E092
S113091030E005C020E130E002C020E132E0F8011F
S1130920B7FE07C060817181828193810C5F1F4F84
S113093006C06081718180E090E00E5F1F4FA301CB
S11309400E948405882E8618FB2DFF773F2E36FEE5
S11309500DC0232D2E7FA22E891458F434FE0BC013
S113096032FC09C0832D8E7EA82E05C0B82CA32C82
S113097003C0B82C01C0B92CA4FE0FC0FE01E80DC1
S1130980F11D8081803321F49A2D997EA92E09C00E
S1130990A2FE06C0B394B39404C08A2D867809F0ED
S11309A0B394A3FC11C0A0FE06C0B21488F4280CB2
S11309B0922C9B180EC0B21460F4B60180E290E051
S11309C00E944805B394F7CFB21418F42B1802C050
S11309D0982C212CA4FE10C0B60180E390E00E9464
S11309E04805A2FE17C0A1FC03C088E790E002C03E
S11309F088E590E0B6010CC08A2D867859F0A1FEF6
S1130A0002C08BE201C080E2A7FC8DE2B60190E057
S1130A100E944805891438F4B60180E390E00E94EE
S1130A2048059A94F7CF8A94F301E80DF11D80816B
S1130A30B60190E00E9448058110F5CF222009F408
S1130A4042CEB60180E290E00E9448052A94F6CF97
S1130A50F6018681978102C08FEF9FEF2B96E2E12A
S1130A600C94FE05FC010590615070400110D8F70C
S1130A70809590958E0F9F1F0895FC0161507040E2
S1130A8001900110D8F7809590958E0F9F1F0895BF
S1130A900F931F93CF93DF93FB01238121FD03C0A9
S1130AA08FEF9FEF2CC022FF16C04681578124810F
S1130AB035814217530744F4A081B1819D012F5F12
S1130AC03F4F318320838C93268137812F5F3F4FA3
S1130AD03783268314C08B01EC01FB010084F1856C
S1130AE0E02D0995892BE1F6D80116968D919C91FC
S1130AF01797019617969C938E931697CE01DF91C4
S1130B00CF911F910F910895FA01AA27283051F12E
S1130B10203181F1E8946F936E7F6E5F7F4F8F4F2A
S1130B209F4FAF4FB1E03ED0B4E03CD0670F781F89
S1130B30891F9A1FA11D680F791F8A1F911DA11D6E
S1130B406A0F711D811D911DA11D20D009F46894A7
S1130B503F912AE0269F11243019305D3193DEF64F
S1130B60CF010895462F4770405D4193B3E00FD005
S1130B70C9F7F6CF462F4F70405D4A3318F0495DF0
S1130B8031FD4052419302D0A9F7EACFB4E0A695D3
S1130B909795879577956795BA95C9F700976105F5
S1130BA0710508959B01AC010A2E0694579547954B
S1130BB037952795BA95C9F7620F731F841F951F40
S1130BC0A01D08952F923F924F925F926F927F9251
S1130BD08F929F92AF92BF92CF92DF92EF92FF9249
S1130BE00F931F93CF93DF93CDB7DEB7CA1BDB0BF5
S1130BF00FB6F894DEBF0FBECDBF09942A8839889A
S1130C0048885F846E847D848C849B84AA84B984A0
S1130C10C884DF80EE80FD800C811B81AA81B981AC
S1130C20CE0FD11D0FB6F894DEBF0FBECDBFED01C0
S1090C300895F894FFCFC3
S1130C360100000001000000000000730000000035
S1130C460000020000000061000000000063617300
S1130C56652030006361736520310063617365202C
S1130C663200636173652033006361736520340069
S1130C7663617365203500636173652036006361C3
S1130C867365203700436F6E74696E6F7573202524
S1130C96640053746172742074696D652025640A56
S1130CA600746865202074696D6520696E746572C8
S1110CB676616C20697320256C64200A0000AE
S9030000FC
