:100000000C943B000C9458000C9458000C9458002D
:100010000C9458000C9458000C9458000C94580000
:100020000C9458000C9458000C9436010C94130155
:100030000C9458000C94FA010C9458000C9458003D
:100040000C9458000C9458000C9458000C945800D0
:100050000C9458000C9458000C9458000C945800C0
:100060000C9458000C94580098009B009E00A1002E
:10007000A400A700AA0011241FBECFEFD8E0DEBF66
:10008000CDBF11E0A0E0B1E0ECEAFEE002C00590D7
:100090000D92A635B107D9F721E0A6E5B1E001C080
:1000A0001D92AE36B207E1F70E94E6000C945407A9
:1000B0000C940000CF93C82F8A3019F48DE00E9471
:1000C0005A00E0ECF0E0808185FFFDCFC093C600D0
:1000D00080E090E0CF910895E0ECF0E0808188230B
:1000E000ECF78091C60090E008951092C50087E675
:1000F0008093C400E0ECF0E080818D7F808386E017
:100100008093C20088E18093C100E8E6F1E08FE0CF
:1001100091E09383828381E091E0918380830895CD
:1001200087309105D0F4FC01EC5CFF4F0C943A044D
:1001300088E787BD08958AE687BD08958FE587BD66
:1001400008958AE587BD089580E587BD089587E411
:1001500087BD08958FE387BD08958CE387BD08951B
:1001600099230CF40F969595879595958795959578
:10017000879595958795845091406BE970E00E9432
:100180000704072E000C880B990B0E94CD0225E76F
:1001900033E948E051EC0E949A0320E030E047EE5A
:1001A00052E40E9412020E947E020E94950267BDE4
:1001B00087B51F928F938DE191E09F938F930E945B
:1001C00076040F900F900F900F9008950E94750085
:1001D00084B1826284B985B1826285B9109285004A
:1001E00010928400EFE6F0E080818260808380E5F9
:1001F00090E09093890080938800E0E8F0E08081AF
:1002000080648083E1E8F0E080818160808378947D
:10021000569A84B5806484BD84B5826084BD85B5FA
:10022000836085BDFFCF1F920F920FB60F921124EE
:100230008F939F93EF93FF9381E090E09093610100
:1002400080936001219AEFE6F0E0808180628083F4
:10025000E1E8F0E0808180648083FF91EF919F91DD
:100260008F910F900FBE0F901F9018951F920F92B5
:100270000FB60F9211242F933F934F935F936F9379
:100280007F938F939F93AF93BF93EF93FF93E1E897
:10029000F0E0908180E489278083809100018823A9
:1002A000F1F08091860090918700809356019093A1
:1002B000570110925F0110925E019F938F938AE223
:1002C00091E09F938F930E947604EFE6F0E08081A7
:1002D000816080830F900F900F900F9074C0EFE6B5
:1002E000F0E0108282E08083409186005091870088
:1002F00060E070E040936201509363016093640199
:10030000709365018091560190915701092E000C60
:10031000AA0BBB0B481B590B6A0B7B0B4093580174
:100320005093590160935A0170935B01DB01CA013C
:1003300077231CF40F96A11DB11D689413F8B59591
:10034000A795979587951694D1F7BF93AF939F93F1
:100350008F9389E391E09F938F930E94760480911D
:10036000580190915901A0915A01B0915B010F90F1
:100370000F900F900F900F900F901D9B03C00E9445
:10038000B00021C0AC01BD01BB2324F4415F5F4F2D
:100390006F4F7F4FDB01CA01689413F8B595A7959D
:1003A000979587951694D1F7BC01CD0164507140A3
:1003B000810991092BE930E040E050E00E941B04E4
:1003C000C9010E9490009091000181E089278093EB
:1003D0000001FF91EF91BF91AF919F918F917F911C
:1003E0006F915F914F913F912F910F900FBE0F90A2
:1003F0001F9018951F920F920FB60F9211248F9392
:100400009F9380915E0190915F01019690935F01AF
:1004100080935E019F918F910F900FBE0F901F9060
:1004200018955058BB27AA270E9429020C9448030C
:100430000E943A0338F00E94410320F039F49F3FB4
:1004400019F426F40C9437030EF4E095E7FB0C94B2
:100450000803E92F0E94590358F3BA17620773077C
:100460008407950720F079F4A6F50C9493030EF415
:10047000E0950B2EBA2FA02D0B01B90190010C01B4
:10048000CA01A0011124FF27591B99F0593F50F4CC
:10049000503E68F11A16F040A22F232F342F442724
:1004A000585FF3CF469537952795A795F04053951C
:1004B000C9F77EF41F16BA0B620B730B840BBAF0EC
:1004C0009150A1F0FF0FBB1F661F771F881FC2F757
:1004D0000EC0BA0F621F731F841F48F4879577956B
:1004E0006795B795F7959E3F08F0B0CF9395880F25
:1004F00008F09927EE0F9795879508950E947B0342
:1005000090F09F3748F4911116F40C94940360E036
:1005100070E080E89FE3089526F01B16611D711DB1
:10052000811D0C940E030C9429030E949C02689474
:10053000B1110C94940308950E94610388F09F57B1
:1005400098F0B92F9927B751B0F0E1F0660F771FF7
:10055000881F991F1AF0BA95C9F714C0B13091F0ED
:100560000E949303B1E008950C949303672F782FB2
:100570008827B85F39F0B93FCCF3869577956795B2
:10058000B395D9F73EF490958095709561957F4F1E
:100590008F4F9F4F0895E89409C097FB3EF49095C4
:1005A0008095709561957F4F8F4F9F4F9923A9F04C
:1005B000F92F96E9BB279395F695879577956795DB
:1005C000B795F111F8CFFAF4BB0F11F460FF1BC01F
:1005D0006F5F7F4F8F4F9F4F16C0882311F096E9B2
:1005E00011C0772321F09EE8872F762F05C0662360
:1005F00071F096E8862F70E060E02AF09A95660F19
:10060000771F881FDAF7880F9695879597F90895D1
:1006100097F99F6780E870E060E00895882371F49F
:10062000772321F09850872B762F07C0662311F48B
:1006300099270DC09051862B70E060E02AF09A95C2
:10064000660F771F881FDAF7880F9695879597F9B9
:1006500008959F3F31F0915020F4879577956795E5
:10066000B795880F911D9695879597F908959FEFF7
:1006700080EC089500240A94161617061806090639
:10068000089500240A941216130614060506089508
:10069000092E0394000C11F4882352F0BB0F40F490
:1006A000BF2B11F460FF04C06F5F7F4F8F4F9F4FD0
:1006B000089557FD9058440F551F59F05F3F71F052
:1006C0004795880F97FB991F61F09F3F79F08795B9
:1006D0000895121613061406551FF2CF4695F1DF42
:1006E00008C0161617061806991FF1CF86957105D2
:1006F0006105089408950E946103A0F0BEE7B91750
:1007000088F4BB279F3860F41616B11D672F782F29
:100710008827985FF7CF869577956795B11D939554
:100720009639C8F30895E894BB2766277727CB014D
:1007300097F908950E94AD030C9448030E943A0370
:1007400038F00E94410320F0952311F00C94080327
:100750000C94370311240C9494030E94590370F3F2
:10076000959FC1F3950F50E0551F629FF001729F56
:10077000BB27F00DB11D639FAA27F00DB11DAA1F65
:10078000649F6627B00DA11D661F829F2227B00DB2
:10079000A11D621F739FB00DA11D621F839FA00D3D
:1007A000611D221F749F3327A00D611D231F849F8D
:1007B000600D211D822F762F6A2F11249F575040E4
:1007C0009AF0F1F088234AF0EE0FFF1FBB1F661F5F
:1007D000771F881F91505040A9F79E3F510580F028
:1007E0000C9408030C9494035F3FE4F3983ED4F315
:1007F000869577956795B795F795E7959F5FC1F7CC
:10080000FE2B880F911D9695879597F9089597FB74
:10081000072E16F4009407D077FD09D00E944004FB
:1008200007FC05D03EF4909581959F4F08957095F3
:1008300061957F4F0895052E97FB1EF400940E944A
:10084000320457FD07D00E94540407FC03D04EF435
:100850000C94320450954095309521953F4F4F4F61
:100860005F4F089590958095709561957F4F8F4F5C
:100870009F4F0895EE0FFF1F0590F491E02D09940E
:10088000AA1BBB1B51E107C0AA1FBB1FA617B707B6
:1008900010F0A61BB70B881F991F5A95A9F78095D2
:1008A0009095BC01CD010895A1E21A2EAA1BBB1B95
:1008B000FD010DC0AA1FBB1FEE1FFF1FA217B3072C
:1008C000E407F50720F0A21BB30BE40BF50B661F42
:1008D000771F881F991F1A9469F760957095809506
:1008E00090959B01AC01BD01CF010895A0E0B0E05F
:1008F000ECE7F4E00C942D07AE014B5F5F4FFA017B
:1009000061917191AF0180916A0190916B010E9498
:100910008C04E2E00C944907ABE0B0E0E2E9F4E0DB
:100920000C941D076C017B018A01FC011782168261
:10093000838181FFCCC1CE0101963C01F6019381F8
:10094000F70193FD859193FF81917F01882309F43D
:10095000BAC1853239F493FD859193FF81917F016E
:10096000853229F4B60190E00E948306E7CF912CEE
:10097000212C312CFFE1F315D8F08B3279F038F4CB
:10098000803279F08332A1F4232D20611DC08D3295
:1009900061F0803369F4232D216016C0832D8260BD
:1009A000382EE32DE4603E2E2AC0F32DF8601DC0E2
:1009B00037FC2DC020ED280F2A3040F08E32B9F4DC
:1009C00036FC81C1232D2064322E19C036FE06C0AC
:1009D0008AE0989E200D1124922E11C0EAE02E9EEE
:1009E000200D1124222EF32DF0623F2E08C08C36EC
:1009F00021F4832D8068382E02C0883641F4F70137
:100A000093FD859193FF81917F018111B3CF982F41
:100A10009F7D9554933028F40C5F1F4F9FE399837B
:100A20000DC0833631F0833771F0833509F059C03A
:100A300021C0F801808189830E5F1F4F8824839431
:100A4000912C530113C02801F2E04F0E511CF80104
:100A5000A080B18036FE03C0692D70E002C06FEF48
:100A60007FEFC5010E9478064C018201F32DFF77CC
:100A70003F2E16C0280122E0420E511CF801A08032
:100A8000B18036FE03C0692D70E002C06FEF7FEFCA
:100A9000C5010E946D064C01F32DF0683F2E8201C6
:100AA00033FC1BC0822D90E088169906B0F4B60185
:100AB00080E290E00E9483062A94F4CFF50137FC8F
:100AC000859137FE81915F01B60190E00E94830617
:100AD00021102A9421E0821A91088114910471F75F
:100AE000E8C0843611F0893641F5F80137FE07C0B9
:100AF00060817181828193810C5F1F4F08C060818A
:100B00007181072E000C880B990B0E5F1F4FF32D80
:100B1000FF763F2E97FF09C090958095709561955F
:100B20007F4F8F4F9F4FF0683F2E2AE030E0A301A8
:100B30000E94BF06882E861845C0853731F4232DC4
:100B40002F7EB22E2AE030E025C0932D997FB92E5A
:100B50008F36C1F018F4883579F0B5C0803719F0B8
:100B6000883721F0B0C0E92FE061BE2EB4FE0DC081
:100B7000FB2DF460BF2E09C034FE0AC0292F266069
:100B8000B22E06C028E030E005C020E130E002C00F
:100B900020E132E0F801B7FE07C0608171818281F7
:100BA00093810C5F1F4F06C06081718180E090E0EF
:100BB0000E5F1F4FA3010E94BF06882E8618FB2DD3
:100BC000FF773F2E36FE0DC0232D2E7FA22E8914D7
:100BD00058F434FE0BC032FC09C0832D8E7EA82E43
:100BE00005C0B82CA32C03C0B82C01C0B92CA4FE9E
:100BF0000FC0FE01E80DF11D8081803321F49A2D94
:100C0000997EA92E09C0A2FE06C0B394B39404C075
:100C10008A2D867809F0B394A3FC11C0A0FE06C00B
:100C2000B21488F4280C922C9B180EC0B21460F4F5
:100C3000B60180E290E00E948306B394F7CFB2142D
:100C400018F42B1802C0982C212CA4FE10C0B60159
:100C500080E390E00E948306A2FE17C0A1FC03C0BF
:100C600088E790E002C088E590E0B6010CC08A2DCC
:100C7000867859F0A1FE02C08BE201C080E2A7FC99
:100C80008DE2B60190E00E948306891438F4B60123
:100C900080E390E00E9483069A94F7CF8A94F30150
:100CA000E80DF11D8081B60190E00E94830681105D
:100CB000F5CF222009F442CEB60180E290E00E94F6
:100CC00083062A94F6CFF6018681978102C08FEFC2
:100CD0009FEF2B96E2E10C943907FC0105906150DF
:100CE00070400110D8F7809590958E0F9F1F089542
:100CF000FC016150704001900110D8F780959095EB
:100D00008E0F9F1F08950F931F93CF93DF93FB01C7
:100D1000238121FD03C08FEF9FEF2CC022FF16C05F
:100D200046815781248135814217530744F4A081BD
:100D3000B1819D012F5F3F4F318320838C932681AA
:100D400037812F5F3F4F3783268314C08B01EC011F
:100D5000FB010084F185E02D0995892BE1F6D8018E
:100D600016968D919C911797019617969C938E934A
:100D70001697CE01DF91CF911F910F910895FA013F
:100D8000AA27283051F1203181F1E8946F936E7FCA
:100D90006E5F7F4F8F4F9F4FAF4FB1E03ED0B4E0BB
:100DA0003CD0670F781F891F9A1FA11D680F791FFC
:100DB0008A1F911DA11D6A0F711D811D911DA11D0D
:100DC00020D009F468943F912AE0269F112430191D
:100DD000305D3193DEF6CF010895462F4770405DB8
:100DE0004193B3E00FD0C9F7F6CF462F4F70405D67
:100DF0004A3318F0495D31FD4052419302D0A9F7C2
:100E0000EACFB4E0A6959795879577956795BA95BB
:100E1000C9F700976105710508959B01AC010A2E81
:100E200006945795479537952795BA95C9F7620F58
:100E3000731F841F951FA01D08952F923F924F92FC
:100E40005F926F927F928F929F92AF92BF92CF925A
:100E5000DF92EF92FF920F931F93CF93DF93CDB763
:100E6000DEB7CA1BDB0B0FB6F894DEBF0FBECDBFDB
:100E700009942A88398848885F846E847D848C84AC
:100E80009B84AA84B984C884DF80EE80FD800C81B5
:100E90001B81AA81B981CE0FD11D0FB6F894DEBF98
:0C0EA0000FBECDBFED010895F894FFCF08
:100EAC0001000000010000000000006C00000000C8
:100EBC00000002000000005A0000000000436F6EAA
:100ECC0074696E6F7573202564005374617274209D
:100EDC0074696D652025640A007468652020746946
:100EEC006D6520696E74657276616C20697320255E
:060EFC006C64200A0000F6
:00000001FF
